{
  "contractName": "Faucet",
  "abi": [
    {
      "inputs": [
        {
          "internalType": "address",
          "name": "",
          "type": "address"
        }
      ],
      "name": "funders",
      "outputs": [
        {
          "internalType": "bool",
          "name": "",
          "type": "bool"
        }
      ],
      "stateMutability": "view",
      "type": "function"
    },
    {
      "inputs": [
        {
          "internalType": "uint256",
          "name": "",
          "type": "uint256"
        }
      ],
      "name": "lutFunders",
      "outputs": [
        {
          "internalType": "address",
          "name": "",
          "type": "address"
        }
      ],
      "stateMutability": "view",
      "type": "function"
    },
    {
      "inputs": [],
      "name": "owner",
      "outputs": [
        {
          "internalType": "address",
          "name": "",
          "type": "address"
        }
      ],
      "stateMutability": "view",
      "type": "function"
    },
    {
      "inputs": [],
      "name": "totalFunders",
      "outputs": [
        {
          "internalType": "uint256",
          "name": "",
          "type": "uint256"
        }
      ],
      "stateMutability": "view",
      "type": "function"
    },
    {
      "stateMutability": "payable",
      "type": "receive"
    },
    {
      "inputs": [],
      "name": "addFunds",
      "outputs": [],
      "stateMutability": "payable",
      "type": "function"
    },
    {
      "inputs": [],
      "name": "emitLog",
      "outputs": [
        {
          "internalType": "bytes32",
          "name": "",
          "type": "bytes32"
        }
      ],
      "stateMutability": "pure",
      "type": "function"
    },
    {
      "inputs": [
        {
          "internalType": "uint256",
          "name": "amount",
          "type": "uint256"
        }
      ],
      "name": "withdraw",
      "outputs": [],
      "stateMutability": "nonpayable",
      "type": "function"
    },
    {
      "inputs": [
        {
          "internalType": "uint256",
          "name": "index",
          "type": "uint256"
        }
      ],
      "name": "getFunderAtIndex",
      "outputs": [
        {
          "internalType": "address",
          "name": "",
          "type": "address"
        }
      ],
      "stateMutability": "view",
      "type": "function"
    },
    {
      "inputs": [],
      "name": "getAllFunders",
      "outputs": [
        {
          "internalType": "address[]",
          "name": "",
          "type": "address[]"
        }
      ],
      "stateMutability": "view",
      "type": "function"
    }
  ],
  "bytecode": "0x608060405234801561001057600080fd5b50336000806101000a81548173ffffffffffffffffffffffffffffffffffffffff021916908373ffffffffffffffffffffffffffffffffffffffff160217905550610ac8806100606000396000f3fe60806040526004361061008a5760003560e01c80638da5cb5b116100595780638da5cb5b14610164578063a26759cb1461018f578063a5ec9a7814610199578063c218deca146101c4578063f42c13bf1461020157610091565b8063031b3677146100965780631f8947ea146100d35780632e1a7d4d146101105780636fbbb55d1461013957610091565b3661009157005b600080fd5b3480156100a257600080fd5b506100bd60048036038101906100b891906106a5565b61022c565b6040516100ca91906106ed565b60405180910390f35b3480156100df57600080fd5b506100fa60048036038101906100f5919061073e565b61024c565b604051610107919061077a565b60405180910390f35b34801561011c57600080fd5b506101376004803603810190610132919061073e565b61027f565b005b34801561014557600080fd5b5061014e610316565b60405161015b9190610853565b60405180910390f35b34801561017057600080fd5b50610179610410565b604051610186919061077a565b60405180910390f35b610197610434565b005b3480156101a557600080fd5b506101ae610548565b6040516101bb9190610884565b60405180910390f35b3480156101d057600080fd5b506101eb60048036038101906101e6919061073e565b61054e565b6040516101f8919061077a565b60405180910390f35b34801561020d57600080fd5b5061021661061a565b60405161022391906108b8565b60405180910390f35b60026020528060005260406000206000915054906101000a900460ff1681565b60036020528060005260406000206000915054906101000a900473ffffffffffffffffffffffffffffffffffffffff1681565b8067016345785d8a00008111156102cb576040517f08c379a00000000000000000000000000000000000000000000000000000000081526004016102c290610930565b60405180910390fd5b3373ffffffffffffffffffffffffffffffffffffffff166108fc839081150290604051600060405180830381858888f19350505050158015610311573d6000803e3d6000fd5b505050565b6060600060015467ffffffffffffffff81111561033657610335610950565b5b6040519080825280602002602001820160405280156103645781602001602082028036833780820191505090505b50905060005b600154811015610408576003600082815260200190815260200160002060009054906101000a900473ffffffffffffffffffffffffffffffffffffffff168282815181106103bb576103ba61097f565b5b602002602001019073ffffffffffffffffffffffffffffffffffffffff16908173ffffffffffffffffffffffffffffffffffffffff16815250508080610400906109dd565b91505061036a565b508091505090565b60008054906101000a900473ffffffffffffffffffffffffffffffffffffffff1681565b600260003373ffffffffffffffffffffffffffffffffffffffff1673ffffffffffffffffffffffffffffffffffffffff16815260200190815260200160002060009054906101000a900460ff166105465733600360006001600081548092919061049d906109dd565b91905055815260200190815260200160002060006101000a81548173ffffffffffffffffffffffffffffffffffffffff021916908373ffffffffffffffffffffffffffffffffffffffff1602179055506001600260003373ffffffffffffffffffffffffffffffffffffffff1673ffffffffffffffffffffffffffffffffffffffff16815260200190815260200160002060006101000a81548160ff0219169083151502179055505b565b60015481565b60008060009054906101000a900473ffffffffffffffffffffffffffffffffffffffff1673ffffffffffffffffffffffffffffffffffffffff163373ffffffffffffffffffffffffffffffffffffffff16146105df576040517f08c379a00000000000000000000000000000000000000000000000000000000081526004016105d690610a72565b60405180910390fd5b6003600083815260200190815260200160002060009054906101000a900473ffffffffffffffffffffffffffffffffffffffff169050919050565b60007f48656c6c6f20576f726c64000000000000000000000000000000000000000000905090565b600080fd5b600073ffffffffffffffffffffffffffffffffffffffff82169050919050565b600061067282610647565b9050919050565b61068281610667565b811461068d57600080fd5b50565b60008135905061069f81610679565b92915050565b6000602082840312156106bb576106ba610642565b5b60006106c984828501610690565b91505092915050565b60008115159050919050565b6106e7816106d2565b82525050565b600060208201905061070260008301846106de565b92915050565b6000819050919050565b61071b81610708565b811461072657600080fd5b50565b60008135905061073881610712565b92915050565b60006020828403121561075457610753610642565b5b600061076284828501610729565b91505092915050565b61077481610667565b82525050565b600060208201905061078f600083018461076b565b92915050565b600081519050919050565b600082825260208201905092915050565b6000819050602082019050919050565b6107ca81610667565b82525050565b60006107dc83836107c1565b60208301905092915050565b6000602082019050919050565b600061080082610795565b61080a81856107a0565b9350610815836107b1565b8060005b8381101561084657815161082d88826107d0565b9750610838836107e8565b925050600181019050610819565b5085935050505092915050565b6000602082019050818103600083015261086d81846107f5565b905092915050565b61087e81610708565b82525050565b60006020820190506108996000830184610875565b92915050565b6000819050919050565b6108b28161089f565b82525050565b60006020820190506108cd60008301846108a9565b92915050565b600082825260208201905092915050565b7f416d6f756e7420746f6f206c6172676500000000000000000000000000000000600082015250565b600061091a6010836108d3565b9150610925826108e4565b602082019050919050565b600060208201905081810360008301526109498161090d565b9050919050565b7f4e487b7100000000000000000000000000000000000000000000000000000000600052604160045260246000fd5b7f4e487b7100000000000000000000000000000000000000000000000000000000600052603260045260246000fd5b7f4e487b7100000000000000000000000000000000000000000000000000000000600052601160045260246000fd5b60006109e882610708565b91507fffffffffffffffffffffffffffffffffffffffffffffffffffffffffffffffff821415610a1b57610a1a6109ae565b5b600182019050919050565b7f4f6e6c79206f776e65722063616e20646f207468697300000000000000000000600082015250565b6000610a5c6016836108d3565b9150610a6782610a26565b602082019050919050565b60006020820190508181036000830152610a8b81610a4f565b905091905056fea264697066735822122017416b25cb7acdd3b6b7f3da074ec9be0b2593e41278d0912469be191fde24c264736f6c634300080a0033",
  "immutableReferences": {},
  "source": "// SPDX-License-Identifier: MIT\r\npragma solidity >=0.4.22 <0.9.0;\r\n\r\nimport \"./Owned.sol\";\r\nimport \"./Logger.sol\";\r\nimport \"./IFaucet.sol\";\r\n\r\ncontract Faucet is Owned, Logger, IFaucet {\r\n\r\n    uint public totalFunders;\r\n    \r\n    mapping(address => bool) public funders;\r\n    mapping(uint => address) public lutFunders;\r\n\r\n    modifier limitWithdraw(uint amount) {\r\n        require(amount <= 100000000000000000, \"Amount too large\");\r\n        _;\r\n    }\r\n\r\n    // this is a special function\r\n    // it's called when you make a transaction and doesn't specify function name to call\r\n\r\n    // external functions are part of the contract interface\r\n    // and can be called from other contracts\r\n\r\n    // payable means that it can receive ether into this contract\r\n\r\n    receive() external payable {}\r\n\r\n    function addFunds() external payable {\r\n        if (!funders[msg.sender]) {\r\n            lutFunders[totalFunders++] = msg.sender;\r\n            funders[msg.sender] = true;\r\n        }\r\n    }\r\n\r\n    function emitLog() public override pure returns (bytes32) {\r\n        return \"Hello World\";\r\n    }\r\n\r\n    function withdraw(uint amount) external limitWithdraw(amount) {\r\n        payable(msg.sender).transfer(amount);\r\n    }\r\n\r\n    function getFunderAtIndex(uint256 index) external view onlyOwner() returns (address) {\r\n        return lutFunders[index];\r\n    }\r\n\r\n    function getAllFunders() external view returns (address[] memory) {\r\n        address[] memory _funders = new address[](totalFunders);\r\n        for (uint i = 0; i < totalFunders; i++) {\r\n            _funders[i] = lutFunders[i];\r\n        }\r\n        return _funders;\r\n    }\r\n}\r\n\r\n// const instance = await Faucet.deployed();\r\n// instance.addFunds({value: \"1000000000000000000\", from: accounts[0]});\r\n// instance.addFunds({value: \"1000000000000000000\", from: accounts[1]});\r\n// instance.getFunderAtIndex(0);\r\n// instance.getAllFunders();\r\n// instance.withdraw(500000000000000000, {from: accounts[1]});",
  "sourcePath": "C:\\Users\\ayoub\\Desktop\\Projects\\training\\blockchain\\faucet\\contracts\\FaucetContract.sol",
  "compiler": {
    "name": "solc",
    "version": "0.8.10+commit.fc410830.Emscripten.clang"
  },
  "schemaVersion": "3.4.3",
  "updatedAt": "2021-11-29T17:20:45.804Z",
  "devdoc": {
    "kind": "dev",
    "methods": {},
    "version": 1
  },
  "userdoc": {
    "kind": "user",
    "methods": {},
    "version": 1
  }
}